:020000040000fa
:080000000002040000000000f2
:020000040000fa
:0400080016040000da
:020000040000fa
:04000c0016040000d6
:020000040000fa
:0400100016040000d2
:020000040000fa
:0400140016040000ce
:020000040000fa
:0400180016040000ca
:020000040000fa
:04001c0016040000c6
:020000040000fa
:0400200016040000c2
:020000040000fa
:0400240016040000be
:020000040000fa
:0400280016040000ba
:020000040000fa
:04002c0016040000b6
:020000040000fa
:0400300016040000b2
:020000040000fa
:0400340016040000ae
:020000040000fa
:0400380016040000aa
:020000040000fa
:04003c0016040000a6
:020000040000fa
:0400400016040000a2
:020000040000fa
:04004400160400009e
:020000040000fa
:04004800160400009a
:020000040000fa
:04004c001604000096
:020000040000fa
:040050001604000092
:020000040000fa
:04005400160400008e
:020000040000fa
:04005800160400008a
:020000040000fa
:04005c001604000086
:020000040000fa
:040060001604000082
:020000040000fa
:04006400160400007e
:020000040000fa
:04006800160400007a
:020000040000fa
:04006c001604000076
:020000040000fa
:040070001604000072
:020000040000fa
:04007400160400006e
:020000040000fa
:04007800160400006a
:020000040000fa
:04007c001604000066
:020000040000fa
:040080001604000062
:020000040000fa
:04008400160400005e
:020000040000fa
:04008800160400005a
:020000040000fa
:04008c001604000056
:020000040000fa
:040090001604000052
:020000040000fa
:04009400160400004e
:020000040000fa
:04009800160400004a
:020000040000fa
:04009c001604000046
:020000040000fa
:0400a0001604000042
:020000040000fa
:0400a400160400003e
:020000040000fa
:0400a800160400003a
:020000040000fa
:0400ac001604000036
:020000040000fa
:0400b0001604000032
:020000040000fa
:0400b400160400002e
:020000040000fa
:0400b800160400002a
:020000040000fa
:0400bc001604000026
:020000040000fa
:0400c0001604000022
:020000040000fa
:0400c400160400001e
:020000040000fa
:0400c800160400001a
:020000040000fa
:0400cc001604000016
:020000040000fa
:0400d0001604000012
:020000040000fa
:0400d400160400000e
:020000040000fa
:0400d800160400000a
:020000040000fa
:0400dc001604000006
:020000040000fa
:0400e0001604000002
:020000040000fa
:0400e40016040000fe
:020000040000fa
:0400e80016040000fa
:020000040000fa
:0400ec0016040000f6
:020000040000fa
:0400f00016040000f2
:020000040000fa
:0400f40016040000ee
:020000040000fa
:0400f80016040000ea
:020000040000fa
:0400fc0016040000e6
:020000040000fa
:0401000016040000e1
:020000040000fa
:0401040016040000dd
:020000040000fa
:0401080016040000d9
:020000040000fa
:04010c0016040000d5
:020000040000fa
:0401100016040000d1
:020000040000fa
:0401140016040000cd
:020000040000fa
:0401180016040000c9
:020000040000fa
:04011c0016040000c5
:020000040000fa
:0401200016040000c1
:020000040000fa
:0401240016040000bd
:020000040000fa
:0401280016040000b9
:020000040000fa
:04012c0016040000b5
:020000040000fa
:0401300016040000b1
:020000040000fa
:0401340016040000ad
:020000040000fa
:0401380016040000a9
:020000040000fa
:04013c0016040000a5
:020000040000fa
:0401400016040000a1
:020000040000fa
:04014400160400009d
:020000040000fa
:040148001604000099
:020000040000fa
:04014c001604000095
:020000040000fa
:040150001604000091
:020000040000fa
:04015400160400008d
:020000040000fa
:040158001604000089
:020000040000fa
:04015c001604000085
:020000040000fa
:040160001604000081
:020000040000fa
:04016400160400007d
:020000040000fa
:040168001604000079
:020000040000fa
:04016c001604000075
:020000040000fa
:040170001604000071
:020000040000fa
:04017400160400006d
:020000040000fa
:040178001604000069
:020000040000fa
:04017c001604000065
:020000040000fa
:04018000c8020000b1
:020000040000fa
:04018400160400005d
:020000040000fa
:040188001604000059
:020000040000fa
:04018c001604000055
:020000040000fa
:040190001604000051
:020000040000fa
:04019400160400004d
:020000040000fa
:040198001604000049
:020000040000fa
:04019c001604000045
:020000040000fa
:0402080016040000d8
:020000040000fa
:04020c0016040000d4
:020000040000fa
:0402100016040000d0
:020000040000fa
:0402140016040000cc
:020000040000fa
:0402180016040000c8
:020000040000fa
:04021c0016040000c4
:020000040000fa
:0402200016040000c0
:020000040000fa
:0402240016040000bc
:020000040000fa
:0402280016040000b8
:020000040000fa
:04022c0016040000b4
:020000040000fa
:0402300016040000b0
:020000040000fa
:0402340016040000ac
:020000040000fa
:0402380016040000a8
:020000040000fa
:04023c0016040000a4
:020000040000fa
:0402400016040000a0
:020000040000fa
:04024400160400009c
:020000040000fa
:040248001604000098
:020000040000fa
:04024c001604000094
:020000040000fa
:040250001604000090
:020000040000fa
:04025400160400008c
:020000040000fa
:040258001604000088
:020000040000fa
:04025c001604000084
:020000040000fa
:040260001604000080
:020000040000fa
:04026400160400007c
:020000040000fa
:040268001604000078
:020000040000fa
:04026c001604000074
:020000040000fa
:040270001604000070
:020000040000fa
:04027400160400006c
:020000040000fa
:040278001604000068
:020000040000fa
:04027c001604000064
:020000040000fa
:040280001604000060
:020000040000fa
:04028400160400005c
:020000040000fa
:040288001604000058
:020000040000fa
:04028c001604000054
:020000040000fa
:040290001604000050
:020000040000fa
:04029400160400004c
:020000040000fa
:040298001604000048
:020000040000fa
:04029c001604000044
:020000040000fa
:0402a0001604000040
:020000040000fa
:0402a400160400003c
:020000040000fa
:0402a8001604000038
:020000040000fa
:0402ac001604000034
:020000040000fa
:0402b0001604000030
:020000040000fa
:0402b400160400002c
:020000040000fa
:0402b8001604000028
:020000040000fa
:0402bc001604000024
:020000040000fa
:0402c0001604000020
:020000040000fa
:0402c400160400001c
:020000040000fa
:0402c8001604000018
:020000040000fa
:0402cc001604000014
:020000040000fa
:0402d0001604000010
:020000040000fa
:0402d400160400000c
:020000040000fa
:0402d8001604000008
:020000040000fa
:0402dc001604000004
:020000040000fa
:0402e0001604000000
:020000040000fa
:0402e40016040000fc
:020000040000fa
:0402e80016040000f8
:020000040000fa
:0402ec0016040000f4
:020000040000fa
:0402f00016040000f0
:020000040000fa
:0402f40016040000ec
:020000040000fa
:0402f80016040000e8
:020000040000fa
:0402fc0016040000e4
:020000040000fa
:0403000016040000df
:020000040000fa
:0403040016040000db
:020000040000fa
:0403080016040000d7
:020000040000fa
:04030c0016040000d3
:020000040000fa
:0403100016040000cf
:020000040000fa
:0403140016040000cb
:020000040000fa
:0403180016040000c7
:020000040000fa
:04031c0016040000c3
:020000040000fa
:0403200016040000bf
:020000040000fa
:0403240016040000bb
:020000040000fa
:0403280016040000b7
:020000040000fa
:04032c0016040000b3
:020000040000fa
:0403300016040000af
:020000040000fa
:0403340016040000ab
:020000040000fa
:0403380016040000a7
:020000040000fa
:04033c0016040000a3
:020000040000fa
:04034000160400009f
:020000040000fa
:04034400160400009b
:020000040000fa
:040348001604000097
:020000040000fa
:04034c001604000093
:020000040000fa
:04035000160400008f
:020000040000fa
:04035400160400008b
:020000040000fa
:040358001604000087
:020000040000fa
:04035c001604000083
:020000040000fa
:04036000160400007f
:020000040000fa
:04036400160400007b
:020000040000fa
:040368001604000077
:020000040000fa
:04036c001604000073
:020000040000fa
:04037000160400006f
:020000040000fa
:04037400160400006b
:020000040000fa
:040378001604000067
:020000040000fa
:04037c001604000063
:020000040000fa
:04038000160400005f
:020000040000fa
:04038400160400005b
:020000040000fa
:040388001604000057
:020000040000fa
:04038c001604000053
:020000040000fa
:04039000160400004f
:020000040000fa
:04039400160400004b
:020000040000fa
:040398001604000047
:020000040000fa
:04039c001604000043
:020000040000fa
:100400000fd420000e7f24000e01880000000000a1
:10041000000020000000e000020032000001200087
:100420002002880014000700020107000000e0001d
:1004300003003a00003f21000100200002003700c5
:100440000000200001002000810f70000100320038
:1004500014000700000020000000e000020032004d
:100460000000020000000000b40f020000000000c5
:100470000040da000000fe004440a900200b2000ec
:100480000000e0000300320000002000a00188000e
:100490004440a800000006008a1f78008b1f7800e7
:1004a0000000060091018800800478000000eb0045
:1004b0001a003700e284440032a0b4009905ba0063
:1004c000e284440032a0b4009906ba00e2844400f9
:1004d00032a0b4000006eb00476fde00fd07b2005b
:1004e000636ce10003003a00ebff07000000eb0043
:1004f0000a003700606ce10004003a00005deb0088
:100500008b05e900fdff3e00040037006168e10053
:10051000010032000086eb000b00070019c7ba008b
:100520001905ba000e04e00003003a000a00e000da
:10053000e0ff3a0000000600fe07b2009e018800be
:100540008a047800f5ff3700395dba008b05e900b1
:100550000c003200295dba008b05e900080032006a
:100560000c00e00003003a00e284440032a0b40032
:10057000f5ff370019ddba008b05e900faff3a00f4
:100580008904e800e184440032a0b40000000600c1
:100590003600f800809fbe00829fbe00849fbe0090
:1005a000869fbe003400f80000002000a0018800f3
:1005b0000200fa0000408000e10f50000b003a00fa
:1005c000a124800000042000008060000000e00002
:1005d00006003a000080eb00502488008c04a8003c
:1005e0008c84a800200020000040880000248000a7
:1005f000700060000000e00007003200102480005e
:10060000700060000000e0000300320000012000e4
:10061000002488004c010700402480006200600034
:100620000000e000020032008ec0a9007700370011
:1006300050248000610060000000e00019003200da
:1006400060248000610060000000e00015003200be
:10065000d90007004000200000408800508b200097
:100660001050880000a0200081c0b300014878002d
:1006700010a0200010407800e340600010a020008f
:100680000148780010a0200090407800c0c8b30056
:1006900080c0700010a020000148780010002000e9
:1006a0005024880050248000700060000000e000aa
:1006b0000700320060248000700060000000e0004d
:1006c00003003200160107000001200050248800ba
:1006d00050248000640060000000e0000a00320046
:1006e00060248000640060000000e000060032002a
:1006f000120020008000eb003007200006080700f1
:100700004000200050248800512480000008200070
:10071000008060000000e0000600320061248000dc
:1007200000082000008060000000e00001003200ae
:10073000e400070050248000620060000000e00038
:100740000a00320060248000620060000000e000c7
:1007500006003200120020008000eb00f0ff2700ae
:10076000ed0707000080eb00702488000040800047
:10077000e30f500002003e008ec0a90023003700a6
:1007800060248000680060000000e0001e0032006d
:100790000040eb00004f7800160037005024800026
:1007a000680060000000e000160032009024800025
:1007b0000040780016e8b700800020005024880030
:1007c00016c8bf008080fb00000f20000080600082
:1007d0000000e00002003a00e500070004003700d6
:1007e0000001eb006181200020072000ca070700fc
:1007f0001e4fe8001e407800e34f5000e7ff360030
:1008000001003700000000008ec0a9000080fa003f
:100810003400f9004f03be004f02be004f01be007e
:100820004f00be003600f900004006000040da002c
:100830000000fe0000000500800178000200370083
:10084000815978000201e9000200e000fcff3a0053
:04085000000006009e
:020000040000fa
:100854001201000000020000000000000008000077
:10086400d80400000402000000000000010200009f
:100874000001000009020000200000000101000046
:1008840000c0000032090000040000000002000063
:10089400ffff0000ff000000070500000102000048
:1008a4004000000001070000058100000240000034
:1008b40000010000040300000904000034030000e8
:1008c4004d00000069000000630000007200000099
:1008d4006f00000063000000680000006900000071
:1008e40070000000200000005400000065000000bb
:1008f40063000000680000006e0000006f0000004c
:100904006c0000006f000000670000007900000028
:1009140020000000490000006e0000006300000099
:100924002e000000400300004d000000690000009c
:1009340063000000720000006f000000630000000c
:100944006800000069000000700000002000000042
:100954004c00000069000000620000007500000007
:100964007300000062000000200000004500000049
:1009740078000000610000006d00000070000000bd
:100984006c0000006500000020000000440000002e
:1009940065000000760000006900000063000000ac
:1009a400650000003c8400005c840000608400005a
:0409b4009484000027
:020000040000fa
:1009b8000200fa000080eb00702488000080eb0041
:1009c800502488002000200030258800a824ef004b
:1009d8008644a900f009200080248800f00920003e
:1009e800602488008804a80000a020004800de00d9
:1009f800c02488009424a8009624ef002200200038
:100a08008000eb00c04a200089ff07009424a90059
:100a18000040eb00004f7800070037001e80fb0005
:100a2800c200dd0000a02000008140006000b80086
:100a38000089be001e4fe8001e407800e74f5000b6
:100a4800f6ff3600d000200050258800020037004d
:100a58008000200050248800502480006800600036
:100a68000000e000faff3a00a08a20008040eb0076
:100a780001487800008b20008040eb000148780096
:100a8800108b200090407800e0c06000014878009a
:100a9800208b200090407800e0c06000014878007a
:100aa80094a4a90080a02000604088000268ef009c
:100ab8000028ef000080fa00000006000000fa009d
:100ac80050258000620060000000e0000e00320047
:100ad800204080009040900000c8b30080cf5000b4
:100ae80008003a00604080009040900040c8b30081
:100af80080cf500003003a0020408000c1c8b300f6
:100b080011409800aa24a900000820005024880059
:100b18000080fa00000006000000fa008284a800a5
:100b280000012000502488000001eb008000eb0049
:100b380050072000f60607000080fa0000000600b3
:100b48000000fa000001eb008000eb0040072000e5
:100b5800ef0607008284a900000120000024880015
:100b68000080fa00000006000200fa0016c8bf0064
:100b78008080fb00b0ff2f00008060000000e000d4
:100b880033003a0016c8bf000080fb004200de00b8
:100b9800004078000080fb00c200dd0000a02000bb
:100ba80000804000204088002040800030408800bd
:100bb8006080200061802000914078000124a2001c
:100bc80001487800204080009000780000c0230091
:100bd8008080600000402300808f50001a003a0097
:100be800204080001000900080007800d08b20000a
:100bf800808f500012003a0020408000518b200066
:100c0800110098000040eb00004f78000900370001
:100c18009e80fb00508b2000008040001e81fb005e
:100c2800d18b200081004100914078000148780074
:100c38001e4fe8001e407800e74f5000f4ff3600d2
:100c48000c000700090037002300070007003700e1
:100c580016c8bf008080fb00b0ff2f000080600036
:100c6800e80f500001003a00320007000080fa0047
:100c7800000006000000fa00604080009000780044
:100c880000002800008060000000e000030032003f
:100c9800604080008040eb00114098001068ef0031
:100ca8001168ef000000eb0060458800a08a200072
:100cb8008040eb00014878007a0007000001eb0053
:100cc8008000eb003000200091060700e5010700d6
:100cd8000080fa00000006000000fa0011c8bf00fa
:100ce800e24f500002003a00a20207000f0037004e
:100cf80046000700c04080000000e0000a003a00fb
:100d08003040800081c0b300014878003040800046
:100d1800518b20001100980030408000c1c8b300fa
:100d280011409800010037001828ef000080fa00f1
:100d3800000006000200fa00604080001000780001
:100d48004e00de0061406000004f7800c080200047
:100d5800c1802000914078000124a2000148780059
:100d680000408000e80f50000c003a00708b200013
:100d7800104078000080fb00b0248800b024800078
:100d88000000e0000300320000012000004088005d
:100d980002003700400020000040880011c8bf0052
:100da800e14f500016003a0060408000d18b2000cf
:100db800110098002602070010c8bf00e24f50003b
:100dc80004003a006040800041c8b3001140980018
:100dd8000c0037001e4078000004e00004003a00d0
:100de8006040800081ccb3001140980005003700b6
:100df8006040800081c8b3001140980001003700ae
:100e0800020007000080fa00000006000200fa0055
:100e18001168ef00604080008040eb0011409800ae
:100e2800604080000020a200000f78001e007800bb
:100e38008040eb0011409800008b20009040780023
:100e480000c8b30000c060000004e00013003200d6
:100e5800308b20001080fb00418b20009180fb002c
:100e6800c808dd00010070000000e0000700320043
:100e7800308b20001080fb00418b20009180fb000c
:100e8800c808dd000100700000000100008b200090
:100e9800904078000174a100014878000080fa00b1
:100ea800000006000000fa00508b20001040780077
:100eb8000046b2000004e00051003a00608b2000b8
:100ec800104078000080fb00cf80de00b2002000d8
:100ed80003002000820f5000838f58004a003e0014
:100ee8000060010021003700220037004800370069
:100ef8002000370046003700060037000b00370097
:100f08003a0037000d0037000a0037001b00370091
:100f18002a003700504580000070a0005045880026
:100f280080002000004088003a003700ae0007002b
:100f3800380037009502070036003700208020006f
:100f480040458800504580000000a00050458800ba
:100f5800c08a200011c0b3000148780050458000c5
:100f68000070a000504588002a003700df00070005
:100f7800280037002900070026003700908b200042
:100f8800104078008080fb00308020000080400006
:100f980040458800504580000000a000504588006a
:100fa800c08a200011c0b300014878005045800075
:100fb8000070a0005045880016003700504580009a
:100fc8000070a00050458800908b200010407800e9
:100fd8000081fb00708b200090407800308020005a
:100fe80000004100014878000a0037000001eb00ca
:100ff8008000eb0020002000c50507000500370031
:101008000000000003003700000000000100370066
:10101800000000000080fa00000006000400fa004a
:10102800708b200010407800e14f500010003a000b
:10103800508b2000104078007f4060000004e000e2
:101048000b003a00504580000070a0005045880011
:10105800608b200010407800e34f500003003a00f6
:1010680010002000a0408800010037001428ef007d
:10107800708b2000104078000004e00058003a000f
:10108800508b2000104078007f406000e24f5000f5
:1010980053003a00908b2000104078006f406000a9
:1010a8000004e0004e003200504580000070a000af
:1010b80050458800908b20009040780000c8b3000d
:1010c80000c060000004e0000a003a00908b200095
:1010d800904078006fc060000080fb0080004000f6
:1010e80080802000008040001000780010079800e1
:1010f80009003700908b2000104178006f40610094
:101108000080fb0080004000c0802000008040007c
:101118001000780010079800608b200010407800bd
:10112800e34f500004003a001e00900041c8b3008d
:10113800114098002a003700a14a2000908b200017
:10114800104178006f4061000080fb000000400003
:10115800008f40001e00780090407800d0cfb30088
:1011680080c060001e00780001487800908b200045
:101178009040780000c8b30000c060000004e000a0
:101188000c0032001e0090008040eb0011409800d7
:101198000e80e8008e80e800914078000124a200cb
:1011a800014878001e00900001c4b3001140980067
:1011b8000b0037001e00900081c8b3001140980052
:1011c8000e80e8008e80e800914078000124a2009b
:1011d800014878001e00900081ccb30011409800af
:1011e8000080fa00000006000000fa00508b200082
:1011f8009040780000c8b30080cf500039003a0012
:10120800a08a200001ccb30001487800808b200020
:10121800104078000080fb00e20f50000900320007
:10122800e30f500015003200e10f500029003a008a
:10123800a042280040458800200120006045880021
:1012480028003700708b2000104078000080fb00d9
:101258000000400080007800404d280000804000d9
:101268001000780040458800404580000080e80074
:1012780010007800604588001a003700708b200045
:1012880010407800e24f50000e003e00708b2000a6
:10129800104078000080fb000000400080007800cb
:1012a800604d28000080400010007800404588000c
:1012b80040458000104078000080fb0060458800b1
:1012c80008003700a08a20008040eb000148780021
:1012d80004003700a08a20008040eb000148780015
:1012e800000000000080fa00000006000200fa007a
:1012f800d08b20008040eb0001487800e08b200074
:101308008040eb0001487800508b20009040780026
:101318007fc060000080fb00e10f50001700320022
:10132800e20f5000190032000000e0003e003a00d1
:10133800504580000070a00050458800d08b2000e8
:1013480010407800804078000104a000d08b200075
:1013580001487800a0408000e10f50002f003a00bb
:10136800d08b200010407800804078000114a00045
:10137800d08b2000014878002b00370050458000b2
:101388000070a000504588002700370050458000b5
:101398000070a00050458800908b20009040780095
:1013a80000c8b30000c060000004e00009003a0073
:1013b800908b2000904078006fc060000080fb0098
:1013c800800040008080200000804000100f7800de
:1013d80008003700908b2000904078006fc06000b4
:1013e8000080fb0080004000c0802000008040009a
:1013f800100f78001e007800104090000080fb005d
:10140800640060000000e00006003200d08b20007d
:1014180011c0b30001487800030037000000000045
:10142800010037000000000051458000000820003e
:10143800008060000000e00008003200d08b20002f
:1014480040458800504580000000a00050458800b5
:10145800c08a200021c0b300014878000080fa004b
:10146800000006000000fa0094a4a900514580007d
:1014780000082000008060000000e00025003a001d
:10148800008b20009040780000c8b30000c06000c6
:101498000004e0001200320020c0b30011e8b700d9
:1014a800604080008040eb00014878006040800088
:1014b80081ccb300114098003040800081c0b30057
:1014c8000148780030408000d18b2000110098003e
:1014d8003040800081ccb300114098005a0037009a
:1014e8003040800081c0b30001487800304080005f
:1014f800518b20001100980030408000c1c8b30013
:10150800114098006040800041c8b3001140980025
:101518004d003700008b20009040780000c8b300d1
:1015280000c060000004e00047003a00508b200033
:101538009040780000c8b30000c060000004e000dc
:1015480030003200b08b20001080fb00c18b2000df
:101558009180fb00c808dd00010070008000780061
:1015680060458000808f500007003100b08b20005c
:101578001080fb00c18b20009180fb00c808dd00b3
:1015880001007000604588003100070010c0b300fa
:1015980011e8b7003040800081c0b30001487800ee
:1015a80030408000518b20001100980030408000ae
:1015b80001c8b300114098001828ef0020408000af
:1015c80081c0b3000148780020408000518b200082
:1015d800110098002040800041c8b30011409800d5
:1015e80010002000c040880060408000d18b20009f
:1015f800110098006040800081ccb3001140980031
:101608001100370020c0b30011e8b7006040800027
:101618008040eb00014878006040800081ccb30036
:10162800114098003040800081c0b3000148780024
:1016380030408000d18b200011009800304080009d
:1016480081ccb300114098000080fa000000060029
:101658000200fa0060458000e70f50000e003e00cf
:1016680060458000000f780010c8bf000004e0004b
:1016780003003a0010c0b30010e8b70008003700b4
:1016880010c8bf00e14f500005003a0020c0b30069
:1016980010e8b7000200370080002000000f780033
:1016a8006040800061408000114190009e409000a1
:1016b8008140710011409800604080009e40780091
:1016c80001487800614580001e00780000805000c5
:1016d80060458800d08b20009040880050458000ed
:1016e800610060000000e0001c003a000b003700b9
:1016f8009140800040458000104178008248780081
:101708008100e800914088000000e800404588001a
:101718001e0078000000e900000f78001e00780025
:101728000000e000f2ff3a0010003700914080000e
:101738004045800010417800824878008100e80028
:10174800914088000000e800404588001e007800ad
:101758000000e900000f78000100370000000000d9
:101768001e0078000000e000f0ff3a000080fa0058
:10177800000006000200fa0020408000104f7800a8
:101788009e80fb00108b20001080fb00228b200025
:101798001281fb004811dd0002007000808f5000ac
:1017a80008003600108b20001080fb00218b2000e1
:1017b8009180fb00c808dd0001007000004f780030
:1017c80016003700108b20001080fb00218b2000b2
:1017d8009180fb00c808dd000100700080007800df
:1017e8001e80fb0000805000f10f20000101600006
:1017f800118b200091417800e0c1610002c17100a5
:1018080082487800c800de00208b20001041780054
:101818006041610081407100014878000040eb00a0
:10182800104798001c003700e08a20001080fb0059
:10183800f18a20009180fb00c808dd0001007000db
:101848009e4090008180fb00d28b2000e2c078008f
:10185800014878000000e800f10f20000101600055
:10186800e18a200091417800e0c1610002c1710065
:1018780082487800c800de00f08a20001041780015
:101888006041610081407100014878001e4090006d
:101898000040e800104798001e4090009e4f5000fe
:1018a800e1ff3900108b20001080fb00218b200005
:1018b8009180fb00c808dd00010070000000e00016
:1018c800140032003040800081c0b3000148780025
:1018d80030408000d18b200011009800204080000b
:1018e8009000780000002400008060000000e00004
:1018f80004003a003040800081ccb30011409800c9
:10190800200037003040800081c8b30011409800a3
:101918001c0037003040800081c0b30001487800c7
:1019280030408000518b200011009800304080002a
:1019380041c8b30011409800308b20001080fb0094
:10194800418b20009180fb00c808dd000100700079
:101958000000e00007003200308b20001080fb0000
:10196800418b20009180fb00c808dd000100700059
:1019780000000100008b2000904078000174a10055
:10198800014878000080fa00000006000200fa0012
:10199800504580000070a0005045880022002000bb
:1019a8008000eb00c04a2000a1fb07000040eb00cc
:1019b800004f7800070037001e80fb00c200dd00e2
:1019c80000a02000008140006000b8000089be002f
:1019d8001e4fe8001e407800e74f5000f6ff360023
:1019e8009424a800120020008000eb003080200022
:1019f8008ffb07009424a90080a020006040880085
:101a080000a020002040880020408000304088004e
:101a1800708b20001040780002e8b70002c8bf00b1
:101a28000004e00003003a000001200000408800a4
:101a38000600370000022000004088001200200045
:101a48002180200010002000310307000080fa00e8
:101a5800000006000400fa0020479800314798006b
:101a680000a02000000f78002e4090000080fb00ae
:101a780000004000800078003e4090000080fb009d
:101a8800008040004300dd004200de004200dd002f
:101a98001e0f40001e00780010017800f1ff27009b
:101aa80081006100010878003e4090000004e000d9
:101ab80007003a002e4090000080fb0080004000a4
:101ac80080802000008040001e0878000600370053
:101ad8002e4090000080fb0080004000c080200065
:101ae800008040001e0878001e0078001001780071
:101af800f1ff2b0081006100010878009e0078004a
:101b0800648040009000780001e0a000010878009f
:101b18000080fa00000006000400fa002047980040
:101b280031479800a14a20002e4090000080fb0019
:101b380000004000008f40001e007800be4090006a
:101b4800014878003e4090000080fb00680060007b
:101b58000000e000030032008040eb002e409000bf
:101b6800bcff07003e4090000080fb00640060005e
:101b78000000e0000300320011c0b3002e409000c6
:101b8800b4ff07000080fa00000006000400fa0015
:101b980020479800314798002e4090000004e0004c
:101ba8000d003a003040800081c0b3000148780041
:101bb80030408000518b2000110098003040800098
:101bc800c1c8b300114098006040800041c8b3000c
:101bd80011409800220037002e4090000080fb0042
:101be80000004000800078003e4090000080fb002c
:101bf800008040004300dd008000780000a0200045
:101c0800008f40001e0078009040900040c8b3004c
:101c180080c070001e007800114098002e4090008f
:101c28000080fb0000004000800078003e409000eb
:101c38000080fb00008040004300dd00e40040001d
:101c480000a02000008f40001e0078009040900007
:101c580040c8b30080c070001e0078001140980092
:101c68000080fa00000006000800fa0020479800eb
:101c78003147980022079800634798003e4090003b
:101c88000004e000070032002e4090000080fb00b6
:101c980080004000c080200000804000100f7800c5
:101ca800060037002e4090000080fb0080004000b6
:101cb8008080200000804000100f7800ae00900067
:101cc8001e007800110098001e007800ee40900079
:101cd800014878001e0078001040900002c4b3004c
:101ce800824060001e007800114098001e007800b5
:101cf8009040900080c8b30080c070001e0078003b
:101d0800114098003e4090000004e0000e003200b0
:101d1800c18020002e4090000080fb0000004000a1
:101d280080804000c28020002e4090000080fb0090
:101d38000000400000004100104078000024a2008c
:101d4800804878000d003700818020002e409000e8
:101d58000080fb000000400080804000828020005e
:101d68002e4090000080fb00000040000000410071
:101d7800104078000024a200804878001e007800f7
:101d88000080fa00000006000200fa00004f780008
:101d9800a124800000022000008060000000e00014
:101da800510032001e80fb0080004000c0802000ef
:101db80000804000100278001e80fb008000400078
:101dc800c080200000804000100078001001be0094
:101dd800000420000100200082027800030178003e
:101de80080017800010078008382620000006100b1
:101df8008000eb00c000dd00000020000001be00f4
:101e08006128b8000001710081817100028abe005a
:101e18001e80fb0080004000c08020000080400041
:101e2800100278001e80fb0080004000c080200067
:101e380000804000100078001001be00000420005f
:101e4800010020000000690081806900008abe004e
:101e5800c18020001e80fb00000040008080400000
:101e6800c28020001e80fb000000400000004100ee
:101e7800104078000024a200804878001e80fb00f3
:101e880080004000c0802000008040009000780062
:101e98001e80fb0000014000c080200000004100bf
:101ea80010007800104090000044b2009040980064
:101eb8001e80fb0080004000c080200000804000a1
:101ec800900078001e80fb0000014000c0802000c8
:101ed80000004100100078001041900000c4b300d9
:101ee80000406900904098000080fa000000060059
:101ef8000000fa000080fa00000006000000fa0066
:101f0800004080000000e00013003a009424ef0035
:101f18008c24ef002000200030258800a824ef0042
:101f28008644a900f009200080248800f0092000d8
:101f3800602488009ec0a800010037009404a8000f
:101f4800a0248000610060000000e000fbff320078
:101f580010002000004088000080fa000000060001
:101f68000000fa0003000700e4ff07001b00070059
:101f7800feff37000000fa000080eb0060198800bf
:101f88002028ef002228ef000300070088fa070046
:101f98000080fa00000006000000fa002116800008
:101fa80000082000008060002016880001168000cc
:101fb800000820000080600000168800d8c2a80031
:101fc800d8e2a800c0e2a800d9a2a800100020000a
:101fd800f04088000080fa00000006000000fa00c7
:101fe800f04080000000e000010032002b010700f3
:101ff80000408000ff0f500023013600402480007d
:10200800620060000000e00021013a000041800009
:102018000000e000060032000041800090007800d7
:1020280000002800008060000000e00019013a006c
:1020380080822000104078000080fb0011082000fa
:10204800810f50003800320011082000810f500025
:1020580004003c0001082000810f500008003200f5
:102068000201370021082000810f50004d00320086
:1020780031082000810f500083003200fb00370038
:102088001e28ef002016800000407800e140600024
:10209800201680000000d1006140600080cf500011
:1020a8001e003a00201680006100600000f0a700c2
:1020b8000000ea000000e9004f00de000040780060
:1020c8000080fb006100600022168000e1ff2f0005
:1020d8008100610001007000201688002016800031
:1020e8006200600000f0a7000000ea000000e900bc
:1020f8004f00de00004078000080fb0061006000b7
:102108000000400022168000d1ff2f0081006100ee
:102118000100700020168800d4003700c402a8000f
:10212800c422a800d10037008086200011c8b3005f
:1021380001487800d116800000042000008060006b
:102148000000e000040032009086200011c0b300b7
:102158000148780003003700908620008040eb009b
:1021680001487800104180000000e00006003200bd
:102178001041800090007800000028000080600076
:102188000000e000b6003a0003c4b30082862000d5
:1021980011c0b30010c0b300b3fe0700104188009f
:1021a800b20037008086200021c8b30001487800bb
:1021b800d1168000000420000080600000f0a70015
:1021c8000000ea000000e9004f00de0080407800cf
:1021d800d216800000082000000061000000e00026
:1021e800020032000040eb000100370020c0b300bd
:1021f80080c07000121680000008200000006100f6
:102208000000e000020032000040eb00010037004f
:1022180040c0b30080c07000d216800000002200c9
:10222800000061000000e000020032000040eb0006
:102238000100370080c0b30000c070008040780003
:102248009086200001487800104180000000e000de
:10225800060032001041800090007800000028003d
:10226800008060000000e0007f003a0003c4b30073
:102278008286200011c0b30010c0b3007afe0700a8
:1022880010418800790037001e28ef009082200056
:10229800104078006140600061406000614060006b
:1022a8000080fb006100600022168000e1ff2f0023
:1022b80081006100010070002016880090822000d3
:1022c800104078000080fb006200600000f0a7006a
:1022d8000000ea000000ea004f00de00004078003d
:1022e8000080fb00610060000000400022168000b2
:1022f800d1ff2f00810061000100700020168800c6
:1023080090822000104078000080fb00640060008c
:1023180000f0a7000000ea000000ea004f00de001d
:10232800004078000080fb00610060004200dd0092
:1023380022168000b1ff2f008100610001007000ab
:102348002016880090822000104078000080fb0052
:102358006800600000f0a7000000ea000000ea0042
:102368004f00de00004078000080fb006100600044
:102378004300dd002216800071ff2f0081006100fc
:10238800010070002016880090822000104078001c
:102398000080fb007000600000f0a7000000ea0069
:1023a8000000ea004f00de00004078000080fb00db
:1023b800610060004400dd0022168000f1fe2f005d
:1023c80081006100010070002016880090822000c2
:1023d800104078008080fb00000220000080600030
:1023e80000f0a7000000ea000000ea004f00de004d
:1023f800004078000080fb00610060004500dd00bf
:1024080022168000f1fd2f0081006100010070009c
:102418002016880090822000104078008080fb0001
:10242800000420000080600000f0a7000000ea001f
:102438000000ea004f00de00004078000080fb004a
:10244800610060004600dd0022168000f1fb2f00cd
:102458008100610001007000201688000300370029
:1024680000000000010037000000000003c4b300b2
:10247800828220008040eb0010c0b300fafd070004
:102488000041880003003700000000000100370009
:10249800000000000080fa00000006000000fa00ba
:1024a800304180000000e00002003a000071220084
:1024b80030418800304180000000e9003041880048
:1024c80040248000620060000000e0001900320033
:1024d800304180000000e00060003a0020168000d3
:1024e8006100600000f0a7000000ea000000e900b9
:1024f8004f00de00004078000080fb0061006000b3
:1025080022168000e1ff2f008100610001007000a9
:102518002016880020168000610060000000e0009e
:1025280002003200c422a8004c003700c422a900cf
:102538004a003700004080000000e00003003a0035
:10254800c402a900c422a90044003700004080004a
:10255800e10f500003003a00c402a800c422a800fa
:102568003e00370000408000e20f500003003a00b0
:10257800c402a800c422a900380037000040800027
:10258800e40f500003003a00c402a900c422a800c6
:102598003200370000408000f00f500013003a006e
:1025a800304180000000e0002c003a002016800036
:1025b8006100600000f0a7000000ea000000e900e8
:1025c8004f00de00004078000080fb0061006000e2
:1025d80022168000e1ff2f008100610001007000d9
:1025e80020168800c422a9001c0037000140800082
:1025f80000022000808f500018003a00304180000f
:102608000000e00015003a0020168000610060001c
:1026180000f0a7000000ea000000e9004f00de001b
:10262800004078000080fb006100600022168000f6
:10263800e1ff2f0081006100010070002016880072
:1026480020168000610060000000e00002003200f7
:10265800c422a90001003700c422a8000080fa00a3
:10266800000006000000fa000080fa0000000600e2
:102678000000fa000080fa00000006000000fa00de
:102688000080fa00000006000000fa000080fa004e
:10269800000006000000fa000080fa0000000600b2
:1026a8000000fa000080fa00000006000000fa00ae
:1026b800d1c1b30010c0b30017fd070003c4b300b5
:1026c800828220008040eb0010c0b30066fd070046
:1026d800004188000080fa00000006000000fa00af
:1026e8009444a80080702000204188002041800088
:1026f8000000e90020418800204180000000e0003f
:10270800faff3a009444a9000080fa00000006008d
:102718000600fa00000f78001107980022079800b9
:102728001e00780021072000810f5000250032008c
:1027380021072000810f500007003e00e20f5000e3
:1027480014003200e30f500014003200e10f500073
:102758000e0032001d00370041072000810f500095
:102768001400320041072000810f50000d0039008d
:1027780051072000810f50000c003200f1ff2700a4
:10278800810f50000d00320010003700c7ff07000e
:102798000e003700c2ff07000c003700bdff07001e
:1027a8000a003700b5ff070008003700adff070033
:1027b80006003700aeff070004003700b2ff07002d
:1027c8000200370000000000000000001000200098
:0827d8000080fa000000060079
:020000040000fa
:1027e000a80800001e000000000000000008000013
:1027f0001e00000000000000000a00002000000091
:102800000000000028080000800000000000000018
:102810001e0800000a000000000000000000000088
:020000040000fa
:020000040005f5
:0457f8009e130000fc
:020000040000fa
:020000040005f5
:0457fc007f3e0000ec
:00000001FF
