:020000040000fa
:080000000002040000000000f2
:020000040000fa
:100400006fc02000007f2400000188000000000071
:100410000c000700e0472100010020001100070048
:10042000000020000000e000020032000000020096
:10043000000000005c100200000000000040da0034
:100440000000fe004440a900200b20000000e00056
:100450000300320000002000a00188004440a800f2
:100460000000060091018800800078000000eb0089
:1004700015003700e280400032a0b4009101ba00bc
:10048000e280400032a0b4009102ba00e280400055
:1004900032a0b4000002eb00472bde00f507b200eb
:1004a000602ce10004003a000059eb008301e900f0
:1004b000fdff3e00040037006128e100010032002a
:1004c0000082eb00040007001101ba000200e00006
:1004d000e8ff3a00000006003159ba008301e90044
:1004e0000c0032002159ba008301e90008003200f3
:1004f0000400e00003003a00e280400032a0b400b3
:10050000f5ff370011d9ba008301e900faff3a007c
:100510008100e800e180400032a0b4000000060045
:020000040000fa
:020000040005f5
:0457f8009e130000fc
:020000040000fa
:020000040005f5
:0457fc007f3e0000ec
:020000040000fa
:100008009214000092140000921400009214000050
:100018009214000092140000921400009214000040
:100028009214000092140000921400009214000030
:100038009214000092140000921400009214000020
:100048009214000092140000921400009214000010
:100058009214000092140000921400009214000000
:1000680092140000921400009214000092140000f0
:1000780092140000921400009214000092140000e0
:1000880092140000921400009214000092140000d0
:1000980092140000921400009214000092140000c0
:1000a80092140000921400009214000092140000b0
:1000b80092140000921400009214000092140000a0
:1000c8009214000092140000921400009214000090
:1000d8009214000092140000921400009214000080
:1000e8009214000092140000921400009214000070
:1000f8009214000092140000921400009214000060
:10010800921400009214000092140000921400004f
:10011800921400009214000092140000921400003f
:10012800921400009214000092140000921400002f
:10013800921400009214000092140000921400001f
:10014800921400009214000092140000921400000f
:1001580092140000921400009214000092140000ff
:1001680092140000921400009214000092140000ef
:100178009214000092140000c403000092140000be
:1001880092140000921400009214000092140000cf
:1001980092140000921400009214000092140000bf
:1001a80092140000921400009214000092140000af
:1001b800921400009214000092140000921400009f
:1001c800921400009214000092140000921400008f
:1001d800921400009214000092140000921400007f
:1001e800921400009214000092140000921400006f
:0801f8009214000092140000b3
:020000040000fa
:10020800921400009214000092140000921400004e
:10021800921400009214000092140000921400003e
:10022800921400009214000092140000921400002e
:10023800921400009214000092140000921400001e
:10024800921400009214000092140000921400000e
:1002580092140000921400009214000092140000fe
:1002680092140000921400009214000092140000ee
:1002780092140000921400009214000092140000de
:1002880092140000921400009214000092140000ce
:1002980092140000921400009214000092140000be
:1002a80092140000921400009214000092140000ae
:1002b800921400009214000092140000921400009e
:1002c800921400009214000092140000921400008e
:1002d800921400009214000092140000921400007e
:1002e800921400009214000092140000921400006e
:1002f800921400009214000092140000921400005e
:10030800921400009214000092140000921400004d
:10031800921400009214000092140000921400003d
:10032800921400009214000092140000921400002d
:10033800921400009214000092140000921400001d
:10034800921400009214000092140000921400000d
:1003580092140000921400009214000092140000fd
:1003680092140000921400009214000092140000ed
:100378009214000092140000c403000092140000bc
:1003880092140000921400009214000092140000cd
:1003980092140000921400009214000092140000bd
:1003a80092140000921400009214000092140000ad
:1003b800921400009214000092140000921400009d
:1003c800921400009214000092140000921400008d
:1003d800921400009214000092140000921400007d
:1003e800921400009214000092140000921400006d
:0803f8009214000092140000b1
:020000040000fa
:1005200012010000000200000000000000080000ae
:10053000d8040000040200000000000001020000d6
:10054000000100000902000020000000010100007d
:1005500000c000003209000004000000000200009a
:10056000ffff0000ff00000007050000010200007f
:10057000400000000107000005810000024000006b
:10058000000100000403000009040000340300001f
:100590004d000000690000006300000072000000d0
:1005a0006f000000630000006800000069000000a8
:1005b00070000000200000005400000065000000f2
:1005c00063000000680000006e0000006f00000083
:1005d0006c0000006f000000670000007900000060
:1005e00020000000490000006e00000063000000d1
:1005f0002e000000400300004d00000069000000d4
:1006000063000000720000006f0000006300000043
:100610006800000069000000700000002000000079
:100620004c0000006900000062000000750000003e
:100630007300000062000000200000004500000080
:1006400078000000610000006d00000070000000f4
:100650006c00000065000000200000004400000065
:1006600065000000760000006900000063000000e3
:1006700065000000a2820000c2820000c682000065
:04068000fa820000fa
:020000040000fa
:100684000200fa00f00f200070248800f00f200010
:100694005024880020002000302588000000eb0052
:1006a400402588008644a900f009200080248800a1
:1006b400f0092000602488008804a800008020003d
:1006c4004800de00c02488009424a8000000eb0049
:1006d400b02488000000eb00602588009424a90061
:1006e4000040eb00004f7800070037001e80fb003d
:1006f400c200dd0000802000008140006000b800de
:100704000089be001e4fe80070c0b3009e4f100069
:10071400f6ff3600d0002000502588000200370084
:1007240080002000502488008ac4bf006840600014
:100734000004e000faff3a000040eb00ace8b70028
:100744000040eb00b7e8b700b8c8bf0060406000e5
:10075400b8e8b700b9c8bf0060406000b9e8b700a6
:1007640094a4a90080802000e04588000040eb00ac
:10077400b4e8b7000000eb00904588000080fa0060
:10078400000006003600f800809fbe00829fbe0075
:10079400849fbe00869fbe003400f8000000200045
:1007a400a00188000200fa0090458000e10f50008b
:1007b4000a003a0094c4bf000044b2000004e00000
:1007c40006003a00f00f2000502488008c04a80092
:1007d4008c84a800200020009045880080c4bf00bd
:1007e400704060000004e0000700320082c4bf00d3
:1007f400704060000004e0000300320000012000ab
:1008040000248800a100070088c4bf006240600083
:100814000004e000020032008ec0a900720037001c
:100824008ac4bf00614060000004e0001700320089
:100834008cc4bf00614060000004e000130032007b
:100844008fff07004000200090458800608d200045
:100854001040880080c0b30000e8b7001180200079
:100864009140780030c0b30000c0600001e8b700d8
:100874001180200091407800c0c8b30000c070000f
:1008840001e8b70010002000502488008ac4bf008b
:10089400704060000004e000070032008cc4bf0018
:1008a400704060000004e000030032006d000700a7
:1008b40000012000502488008ac4bf006440600006
:1008c4000004e0000a0032008cc4bf0064406000f1
:1008d4000004e00006003200120020008000eb005b
:1008e40030072000c907070040002000502488007a
:1008f4008ac4bf0001c8b300014060000004e000e6
:10090400060032008cc4bf0001c8b300014060007f
:100914000004e000010032003b0007008ac4bf006d
:10092400624060000004e0000a0032008cc4bf0092
:10093400624060000004e000060032001200200063
:100944008000eb00f0ff2700b0070700f00f200045
:100954007024880090458000e30f500002003e00a0
:100964008ec0a900200037008cc4bf00684060001e
:100974000004e0001b0032000040eb00004f780050
:10098400150037008ac4bf00684060000004e0001e
:100994001400320090248000cee8b70080002000cc
:1009a40050248800cec8bf008080fb00000f2000c8
:1009b400008060000000e00002003a003d000700f3
:1009c40004003700e18c20000001eb002007200028
:1009d4008e0707001e4fe80030c0b3009e4f100082
:1009e400e8ff36008ec0a9000080fa003400f90048
:1009f4004f03be004f02be004f01be004f00be00b9
:100a04003600f900004006000000fa00aac4bf0046
:100a1400624060000004e0000e00320010468000d6
:100a24009040900000c8b30080cf500008003a0006
:100a3400e04580009040900040c8b30080cf500053
:100a440003003a0011468000c0c8b30090409800eb
:100a5400aa24a90000082000502488000080fa007d
:100a6400000006000000fa008284a80000012000b3
:100a7400502488000001eb008000eb0050072000a8
:100a8400620707000080fa00000006000000fa0078
:100a94000001eb008000eb00400720005b0707002b
:100aa4008284a90000012000002488000080fa004c
:100ab400000006000200fa00cec8bf008080fb00e0
:100ac400b0ff2f00008060000000e00035003a0015
:100ad400cec8bf008080fb00c00f200000806000f3
:100ae4004280de004200dd008000780000802000ab
:100af4000080400010468800104680002046880090
:100b0400418c2000408c2000104078000024a2007a
:100b1400804878001046800010409000c2c3b300a3
:100b24008240600040c3b30080cf50001b003a00f5
:100b34001046800090009000e08d2000808f5000cf
:100b440014003a0010468000618d200011009800c6
:100b54000040eb00004f78000b0037001e80fb00c4
:100b640080007800608d2000008140001e80fb0022
:100b740080007800e08d2000008040001040780064
:100b8400004978001e4fe80070c0b3009e4f10006b
:100b9400f2ff36000c0007000900370028000700a8
:100ba40007003700cec8bf008080fb00b0ff2f00d5
:100bb40000806000e80f500001003a003800070090
:100bc4000080fa00000006000000fa00e045800002
:100bd4009040900000c8b30000c060000004e00032
:100be40003003200e14580000040eb009040980093
:100bf4000040eb00cae8b7000040eb00cbe8b700c8
:100c0400adc8bf0060406000ade8b700aec8bf002b
:100c140060406000aee8b7000040eb00ace8b7000d
:100c2400780007000001eb008000eb00300020009a
:100c3400f60607000e0207000080fa000000060016
:100c44000000fa00cbc8bf00e24f500002003a0097
:100c5400110307001000370046000700804680009b
:100c64000000e0000a003a002146800080c0b30082
:100c74008048780021468000608d20009000980014
:100c840021468000c0c8b30090409800020037009d
:100c94000000eb00804688000080fa000000060097
:100ca4000200fa00e0458000104090000080fb0044
:100cb4004600de0061406000004f7800c18b2000d8
:100cc400c08b2000104078000024a20080487800e7
:100cd40090458000e80f50000b003a00d8c8bf00d0
:100ce4000080fb00b0248800b02480000000e000f5
:100cf4000300320000012000904588000200370004
:100d04004000200090458800cbc8bf00e14f500050
:100d140015003a00e0458000e18d200011009800a4
:100d24005c020700cac8bf00e24f500004003a004a
:100d3400e145800040c8b300904098000b003700a4
:100d44001e04e00004003a00e145800080ccb300ba
:100d54009040980005003700e145800080c8b3004a
:100d64009040980001003700020007000080fa005c
:100d7400000006000200fa000040eb00cbe8b700d8
:100d8400e14580000040eb0090409800e045800081
:100d94000020a200000f78009e0078000040eb00c5
:100da40090409800718b20009140780000c8b300f7
:100db40000c060000004e00010003200bac8bf00a8
:100dc4008080fb00bbc8bf000080fb004800dd0042
:100dd400010070000000e00007003200bac8bf0044
:100de4008080fb00bbc8bf000080fb004800dd0022
:100df4000100700000000100b7e8a9000080fa00bb
:100e0400000006000400fa00d6c8bf000046b20085
:100e14000004e00058003a00d7c8bf000080fb007f
:100e24006101b900028fbe00b00020000100200063
:100e34001e01be00800f5100818f59004e003e00fc
:100e44001e00be00006001002400370025003700aa
:100e540049003700230037004700370006003700f9
:100e640009003700400037000b0037000800370046
:100e74001e00370033003700ace8a80080002000d3
:100e8400904588003c003700a40007003a00370072
:100e94000103070038003700428b2000f00f2000c8
:100ea40080006100aac8bf0060406000014070007b
:100eb400aae8b700c810de00abc8bf0060406000fd
:100ec40001407000abe8b700ac08a80010c0b30044
:100ed400ade8b700ace8a800270037000e01070012
:100ee400250037002600070023003700dac8bf00ba
:100ef4000080fb0080007800008c2000008040000f
:100f040000017800f00f200080006100aac8bf0033
:100f14006040600001407000aae8b700c810de001d
:100f2400abc8bf006040600001407000abe8b70090
:100f3400ac08a80010c0b300ade8b700ace8a80046
:100f44000d003700ace8a800dac8bf008080fb00c1
:100f5400828d200012417800008c20000080400027
:100f640002487800040037000001eb008000eb0029
:100f740020002000250607000080fa00000006007b
:100f84000400fa00d8c8bf00e14f50000d003a0039
:100f9400d6c8bf007f4060000004e00009003a00aa
:100fa400ace8a800d7c8bf00e34f500003003a00e4
:100fb4001000200080458800020037000000eb008c
:100fc40080458800d8c8bf000004e00051003a0002
:100fd400d6c8bf007f406000e24f50004d003a0089
:100fe400dac8bf006f4060000004e000490032002e
:100ff400ace8a800dac8bf0001c8b3000140600033
:101004000004e00009003a00dac8bf006f40600045
:101014000080fb0080004000608c200000804000c5
:10102400100078001007980008003700dac8bf00e5
:101034006f4060000080fb0080004000c08b2000f7
:10104400008040001000780010079800d7c8bf0047
:10105400e34f500004003a009e00900040c8b300e3
:10106400904098002b003700dac8bf006f40600042
:101074000080fb000000400080007800a04a2000af
:1010840000804000000f78001e0078009040780037
:10109400d0cfb30080c060001e0078000148780003
:1010a400a18d20009140780000c8b30000c060000a
:1010b4000004e0000c0032009e0090000040eb00b1
:1010c400904098008e80e8000e80e8001040780080
:1010d4000024a200804878009e00900000c4b30061
:1010e400904098000b0037009e00900080c8b30029
:1010f400904098008e80e8000e80e8001040780050
:101104000024a200804878009e00900080ccb300a8
:10111400904098000080fa00000006000200fa00e7
:10112400618d20009140780000c8b30080cf50004a
:1011340077003a0000ccb300ace8b700d9c8bf00d0
:101144000080fb00000f78001e007800e20f5000c2
:101154001b0032001e007800e30f50003e003200f6
:101164001e007800e10f50000100320066003700d5
:1011740002292800f00f200080006100aac8bf00e7
:101184006040600001407000aae8b700c810de00ab
:10119400abc8bf006040600001407000abe8b7001e
:1011a400adc8bf00604060002041b300ade8b700a7
:1011b400aec8bf0060406000aee8b700540037001e
:1011c400d8c8bf000080fb00000040008000780009
:1011d400a03328000080400010017800f00f2000a8
:1011e40080006100aac8bf00604060000140700038
:1011f400aae8b700c810de00abc8bf0060406000ba
:1012040001407000abe8b700aac8bf008080fb00b3
:10121400abc8bf000080fb004800dd000100700087
:101224006200400010017800f00f2000800061008f
:10123400adc8bf006040600001407000ade8b70079
:10124400c810de00aec8bf006040600001407000fe
:10125400aee8b7002e003700d8c8bf00e24f5000f8
:1012640026003e00d8c8bf000080fb0000004000fc
:1012740080007800c033280000804000100178000e
:10128400f00f200080006100aac8bf006040600029
:1012940001407000aae8b700c810de00abc8bf0068
:1012a4006040600001407000abe8b700aac8bf000e
:1012b4008080fb00abc8bf000080fb004800dd005d
:1012c40001007000104078000081fb00f00f200046
:1012d40080006100adc8bf00604060000140700044
:1012e400ade8b700c810de00aec8bf0060406000c3
:1012f40001407000aee8b700050037000040eb0085
:10130400ace8b700020037000040eb00ace8b700df
:101314000080fa00000006000400fa000040eb0020
:10132400dee8b7000040eb00dfe8b700d6c8bf0036
:101334007f4060000080fb00100798001e009000b2
:10134400e10f5000120032001e009000e20f500026
:10135400110032001e0090000000e0000100320085
:101364002d003700ace8a800dec8bf000004a000d0
:10137400dee8b70080458000e10f500026003a0007
:10138400dec8bf000014a000dee8b700220037006a
:10139400ace8a80020003700ace8a800dac8bf0019
:1013a40001c8b300014060000004e00009003a00f5
:1013b400dac8bf006f4060000080fb00800040007e
:1013c400608c20000080400010007800000f78003e
:1013d40008003700dac8bf006f4060000080fb00df
:1013e40080004000c08b2000008040001000780086
:1013f400000f78001e007800104090000080fb0071
:101404004200de00610060000004e00002003200df
:1014140010c0b300dee8b700acc8bf0001c8b30019
:10142400014060000004e0000f003200e28d200063
:10143400f00f200080006100aac8bf006040600077
:1014440001407000aae8b700c810de00abc8bf00b6
:101454006040600001407000abe8b700ac08a80031
:1014640020c0b300ade8b7000080fa000000060019
:101474000000fa0094a4a900acc8bf0001c8b300de
:10148400014060000004e00024003a00b7c8bf0037
:1014940001c8b300014060000004e0001200320003
:1014a40020c0b300cbe8b700e14580000040eb006a
:1014b40080487800e145800080ccb30090409800db
:1014c4002146800080c0b300804878002146800017
:1014d400e08d2000900098002146800080ccb3006d
:1014e40090409800690037002146800080c0b30016
:1014f4008048780021468000608d2000900098008c
:1015040021468000c0c8b30090409800e1458000a7
:1015140040c8b300904098005c003700b7c8bf00d3
:1015240001c8b300014060000004e00057003a0025
:10153400d6c8bf0001c8b300014060000004e00049
:1015440041003200dcc8bf008080fb00ddc8bf0062
:101554000080fb004800dd000100700000017800fd
:10156400adc8bf008080fb00aec8bf000080fb0098
:101574004800dd0001007000800f510012003100ae
:10158400dcc8bf008080fb00ddc8bf000080fb001a
:101594004800dd000100700000017800f00f200019
:1015a40080006100adc8bf00604060000140700071
:1015b400ade8b700c810de00aec8bf0060406000f0
:1015c40001407000aee8b7003200070010c0b3005d
:1015d400cbe8b7002146800080c0b3008048780083
:1015e40021468000608d20009000980021468000f4
:1015f40000c8b300904098000000eb0080468800cb
:101604001146800080c0b3008048780011468000f5
:10161400608d2000900098001146800040c8b300ff
:10162400904098001000200080468800e14580002a
:10163400e08d200090009800e145800080ccb3004c
:10164400904098001100370020c0b300cbe8b700e9
:10165400e14580000040eb0080487800e1458000cf
:1016640080ccb300904098002146800080c0b30035
:101674008048780021468000e08d2000900098008a
:101684002146800080ccb300904098000080fa008e
:10169400000006000200fa00adc8bf008080fb0015
:1016a400aec8bf000080fb004800dd0001007000f0
:1016b400e70f500013003e00adc8bf008080fb0060
:1016c400aec8bf000080fb004800dd0001007000d0
:1016d400000f7800cac8bf000004e00003003a000d
:1016e40010c0b300cae8b70008003700cac8bf007a
:1016f400e14f500005003a0020c0b300cae8b7002b
:101704000200370080002000000f7800e2458000ce
:10171400e0458000904090001e40900000c07000a2
:1017240010419800e14580001e4078008048780010
:10173400adc8bf008080fb00aec8bf000080fb00c6
:101744004800dd0001007000800078001e00780071
:1017540000815000f00f200080006100adc8bf0080
:101764006040600001407000ade8b700c810de00c2
:10177400aec8bf006040600001407000aee8b70032
:10178400e08d200060468800acc8bf006140600066
:101794000004e0003b003a001b0037006246800072
:1017a400aac8bf008080fb00abc8bf000080fb005c
:1017b4004800dd00010070008000780011407800ce
:1017c400004978000200e80060468800618140001a
:1017d400f00f200080006100aac8bf0060406000d4
:1017e40001407000aae8b700c810de00abc8bf0013
:1017f4006040600001407000abe8b7001e00780054
:101804000000e900000f78001e0078000000e000ee
:10181400e2ff3a001e00370062468000aac8bf00fb
:101824008080fb00abc8bf000080fb004800dd00e7
:1018340001007000800078001140780000497800b1
:101844000200e800604688000101e800f00f200073
:1018540080006100aac8bf006040600001407000c1
:10186400aae8b700c810de00abc8bf006040600043
:1018740001407000abe8b7001e0078000000e900ea
:10188400000f78001e0078000000e000e2ff3a003c
:101894000080fa00000006000200fa0010468000f2
:1018a40090407800114798001e4090000081fb0092
:1018b400b8c8bf008080fb00b9c8bf000080fb002f
:1018c4004800dd0001007000800f51000800360060
:1018d400b8c8bf008080fb00b9c8bf000080fb000f
:1018e4004800dd0001007000104798001500370023
:1018f400b8c8bf008080fb00b9c8bf000080fb00ef
:101904004800dd0001007000800078001e40900057
:101914000080fb0000815000f00f20008000610077
:10192400b8c8bf006040600001407000b8e8b7006c
:10193400c810de00b9c8bf006040600001407000fc
:10194400b9e8b7000040eb00004f780019003700f9
:10195400b5c8bf008080fb00b6c8bf000080fb0094
:101964004800dd0001007000000178009e80fb004b
:10197400e08d20000080400010407800004978008d
:101984000201e800f00f200080006100b5c8bf002c
:101994006040600001407000b5e8b700c810de0088
:1019a400b6c8bf006040600001407000b6e8b700f0
:1019b4001e4fe8001e4090009e4f1000e4ff3900c7
:1019c400b8c8bf008080fb00b9c8bf000080fb001e
:1019d4004800dd00010070000000e0001300320048
:1019e4002146800080c0b3008048780021468000f2
:1019f400e08d200090009800104680001040900078
:101a04000044b2000004e00004003a0021468000d3
:101a140080ccb300904098001d0037002146800020
:101a240080c8b30090409800190037002146800018
:101a340080c0b3008048780021468000608d20007b
:101a4400900098002146800040c8b3009040980060
:101a5400bac8bf008080fb00bbc8bf000080fb0089
:101a64004800dd00010070000000e00007003200c3
:101a7400bac8bf008080fb00bbc8bf000080fb0069
:101a84004800dd000100700000000100b7e8a90073
:101a94000080fa00000006000200fa00ace8a8008a
:101aa4000000eb00602588000040eb00004f780048
:101ab400070037001e80fb00c200dd00008020000c
:101ac400008140006000b8000089be001e4fe8009d
:101ad40070c0b3009e4f1000f6ff36009424a80097
:101ae4000040eb00c0e8b7009424a90080802000e7
:101af400e0458800008020001046880010468000e1
:101b040020468800d8c8bf00b4e8b700b4c8bf00f6
:101b14000004e00003003a00000120009045880022
:101b240006003700000220009045880012002000c3
:101b3400418b200010002000340307000080fa00cd
:101b4400000006000400fa0020479800314798007e
:101b540000802000000f78002e4090000080fb00e1
:101b640000004000800078003e4090000080fb00b0
:101b7400008040004300dd004200de004200dd0042
:101b84001e0f40009e007800114090000070a100dc
:101b9400904098003e4090000004e00007003a00a6
:101ba4002e4090000080fb0080004000608c2000ec
:101bb400008040001e087800060037002e40900088
:101bc4000080fb0080004000c08b200000804000ab
:101bd4001e0878009e007800114090000060a1006b
:101be400904098001e007800e400400011409000ee
:101bf4000060a000904098000080fa0000000600f9
:101c04000400fa0020479800314798002e409000c5
:101c14000080fb000000400080007800a04a200003
:101c240000804000000f78001e007800be40900045
:101c3400014878003e4090000080fb004300de0035
:101c4400610060000004e000030032008040eb000b
:101c54002e409000bbff07003e4090000080fb0038
:101c64004200de00610060000004e0000300320076
:101c740011c0b3002e409000b2ff07000080fa00ac
:101c8400000006000400fa0020479800314798003d
:101c94002e4090000004e0000d003a002146800030
:101ca40080c0b3008048780021468000608d200009
:101cb4009000980021468000c0c8b300904098006e
:101cc400e145800040c8b3009040980023003700ed
:101cd4002e4090000080fb0000004000800078004f
:101ce4003e4090000080fb00008040004300dd0087
:101cf400800078000080200000804000000f780001
:101d04001e0078009040900040c8b30080c070006e
:101d14001e007800114098002e4090000080fb00c7
:101d240000004000800078003e4090000080fb00ee
:101d3400008040004300dd008000780040802000e7
:101d4400008f40001e0078009040900040c8b3000f
:101d540080c070001e007800114098000080fa00d6
:101d6400000006000800fa00204798003147980058
:101d740022079800634798003e4090000004e0006a
:101d8400070032002e4090000080fb0080004000dd
:101d9400c08b200000804000100f78000600370040
:101da4002e4090000080fb0080004000608c2000ea
:101db40000804000100f78001e007800ae009000f4
:101dc400110098001e0078006e41900002487800cf
:101dd4001e0078001040900002c4b30082406000ee
:101de4001e007800114098001e007800904090007a
:101df40080c8b30080c070001e00780011409800b5
:101e04003e4090000004e000110032002e4090009b
:101e14000080fb000000400080007800c08b2000a0
:101e240000804000000178002e4090000080fb00fc
:101e34000000400080007800c08b2000008040003b
:101e4400104078000024a2000049780010003700f8
:101e54002e4090000080fb000000400080007800cd
:101e6400608c200000804000000178002e4090002b
:101e74000080fb000000400080007800608c20009f
:101e840000804000104078000024a200004978003f
:101e94001e0078000080fa00000006000600fa0028
:101ea400004f780094c4bf000042b2000004e00078
:101eb4005f0032001e80fb0080004000c08b2000c9
:101ec40000804000100378001e80fb00800040006a
:101ed400c08b200000804000100078001000be007d
:101ee4000204200003002000000278008102780030
:101ef4000200780083007800000162000180620023
:101f04006102b80014079800250798001e0090008d
:101f1400ae009000c000dd00000020001007980013
:101f2400210798001e009000ae0090006112b800d6
:101f340014079800250798001e019000ae01900038
:101f44000200700083807000008bbe001e80fb00c6
:101f540080004000c08b2000008040001002780008
:101f64001e80fb0080004000c08b200000804000e9
:101f7400100078001001be000004200001002000c1
:101f84000000690081806900008abe001e80fb0099
:101f94000000400080007800c08b200000804000da
:101fa400000178001e80fb000000400080007800e3
:101fb400c08b200000804000104078000024a20064
:101fc400004978001e80fb0080004000c08b200088
:101fd40000804000100178001e80fb00800040005b
:101fe400c08b20000080400010007800104090005a
:101ff4000044b200104198001e80fb0080004000a5
:10200400c08b200000804000100178001e80fb007f
:1020140080004000c08b2000008040001000780049
:102024009040900000c4b30000c0680010419800c4
:102034000080fa00000006000000fa000080fa00a8
:10204400000006000000fa00904580000000e00057
:1020540016003a000000eb00a02488000000eb000a
:102064006024880020002000302588000000eb0058
:10207400402588008644a900f009200080248800b7
:10208400f0092000602488009ec0a80001003700e9
:102094009404a80094c4bf00614060000004e00000
:1020a400fbff320010002000904588000080fa00f9
:1020b400000006000000fa0003000700e1ff07002b
:1020c4001d000700feff37000000fa000080eb004f
:1020d400601988000000eb00304588000000eb0028
:1020e400404588000300070065f907000080fa00f6
:1020f400000006000000fa002116800000082000fd
:10210400008060002016880001168000000820006e
:102114000080600000168800d8c2a800d8e2a80099
:10212400c0e2a800d9a2a800100020002045880021
:102134000080fa00000006000800fa002045800034
:102144000000e00001003200190107009045800002
:10215400ff0f50001401360088c4bf0062406000c5
:102164000004e000010032000f0137003045800018
:102174000000e000060032003045800090409000ee
:1021840000c8b30000c060000004e00006013a008b
:1021940024c8bf000080fb0030079800100820000e
:1021a400be009000808f50003b00320010082000d9
:1021b4003e019000800f510005003c000008200003
:1021c400be009000808f50000a003200f0003700fb
:1021d400200820003e019000800f51004900320089
:1021e40030082000be009000808f5000870032002d
:1021f400e70037000000eb0020458800c4c2bf00a0
:10220400e1406000c4c2bf000080fb000000d100b8
:102214006140600080cf50001c003a00c4c2bf007f
:102224000004a20061406000614060006140600001
:1022340061416000412c200091407800e0cfb30060
:1022440000c0600002407000c4e2b700c4c2bf0016
:102254000080fb000000d1000004a2006140600087
:1022640061406000614060006140600000414000e6
:10227400412c200091407800d0cfb30000c0600012
:1022840002407000c4e2b700c1003700c402a800d5
:10229400c422a800be00370010c8b30064e8b70029
:1022a400dac2bf000044b2000004e00003003200c0
:1022b40010c0b30065e8b700020037000040eb002f
:1022c40065e8b700404580000000e00006003200e9
:1022d400404580009040900000c8b30000c06000fa
:1022e4000004e000aa003a0003c4b30042862000c0
:1022f40011c0b30010c0b3009afe07004045880027
:10230400a300370020c8b30064e8b700dac2bf00f6
:102314000080fb004600de000004a2006140600073
:1023240050479800a12d20009140780000c8b300c8
:1023340000c060000004e000030032000041eb0034
:10234400424798000200370020c0b300404798007d
:10235400de4090004e41900082c0700031479800ea
:10236400c2c2bf0001c8b300014060000004e00025
:10237400030032000040eb002047980002003700c1
:1023840041c0b300214798003e4190002e40900088
:102394000041710012479800dbc2bf000042b20046
:1023a4000004e000030032008040eb00014f78009d
:1023b4000200370082c0b300024f78009e409000b4
:1023c4001e41780002c0700065e8b70040458000f7
:1023d4000000e0000600320040458000904090007c
:1023e40000c8b30000c060000004e00068003a00c8
:1023f40003c4b3004286200011c0b30010c0b30070
:1024040058fe070040458800610037000000eb00db
:102414002045880025c8bf0061406000614060001d
:102424006140600061416000412c200091407800cf
:10243400e0cfb30000c0600002407000c4e2b70007
:1024440025c8bf000080fb000000d100614060008f
:1024540061406000614060006140600000414000f4
:10246400412c200091407800d0cfb30000c0600020
:1024740002407000c4e2b70025c8bf000080fb0022
:102484004200de0061406000614060006140600025
:10249400614060004201dd00412c20009140780041
:1024a400b0cfb30000c0600002407000c4e2b700c7
:1024b40025c8bf000080fb004300de0061406000cf
:1024c4006140600061406000614060004301dd00e4
:1024d400412c20009140780070cfb30000c0600010
:1024e40002407000c4e2b70025c8bf000080fb00b2
:1024f4004400de00614060006140600061406000b3
:10250400614060004401dd00412c200091407800ce
:10251400f0ceb30000c0600002407000c4e2b70017
:1025240025c8bf000080fb004500de00614060005c
:102534006140600061406000614060004501dd0071
:10254400412c200091407800f0cdb30000c0600021
:1025540002407000c4e2b70025c8bf000080fb0041
:102564004600de0061406000614060006140600040
:10257400614060004601dd00412c2000914078005c
:10258400f0cbb30000c0600002407000c4e2b700aa
:1025940003c4b300428220008040eb0010c0b300ab
:1025a400f0fd0700304588000080fa0000000600b6
:1025b4000000fa00004180000000e00002003a0040
:1025c4000071220000418800004180000000e90001
:1025d4000041880088c4bf00624060000004e0003d
:1025e40017003200004180000000e0005a003a0069
:1025f400c4c2bf000004a2006140600061406000ea
:102604006140600061416000412c200091407800ed
:10261400e0cfb30000c0600002407000c4e2b70025
:10262400c4c2bf00614060000004e0000200320048
:10263400c422a80048003700c422a900460037007d
:10264400904580000000e00003003a00c402a900a5
:10265400c422a9004000370090458000e10f5000db
:1026640003003a00c402a800c422a8003a003700bc
:1026740090458000e20f500003003a00c402a80015
:10268400c422a9003400370090458000e40f5000b4
:1026940003003a00c402a900c422a8002e00370097
:1026a40090458000f00f500011003a000041800076
:1026b4000000e00028003a00c4c2bf000004a200e9
:1026c4006140600061406000614060006141600001
:1026d400412c200091407800e0cfb30000c060009e
:1026e40002407000c4e2b700c422a9001a003700f7
:1026f4009145800000022000808f500016003a00af
:10270400004180000000e00013003a00c4c2bf0092
:102714000004a2006140600061406000614060000c
:1027240061416000412c200091407800e0cfb3006b
:1027340000c0600002407000c4e2b700c4c2bf0021
:10274400614060000004e00002003200c422a900dd
:1027540001003700c422a8000080fa00000006002f
:102764000000fa000080fa00000006000000fa00f1
:102774000080fa00000006000000fa000080fa0061
:10278400000006000000fa000080fa0000000600c5
:102794000000fa000080fa00000006000000fa00c1
:1027a4000080fa00000006000000fa00d1c1b30066
:1027b40010c0b30012fd070003c4b300428220001e
:1027c4008040eb0010c0b30066fd07003045880070
:1027d4000080fa00000006000000fa009444a800fb
:1027e4008070200010418800104180000000e90042
:1027f40010418800104180000000e000faff3a0018
:102804009444a9000080fa00000006000800fa00c1
:10281400000f780011079800220798001e00780026
:102824003007980020072000be009000808f5000e1
:102834002d00320020072000be009000808f500041
:102844000a003e003e009000e20f50001a003200e1
:10285400be009000e38f5000190032003e0090004b
:10286400e10f500012003200200037004007200022
:10287400be009000808f50001700320040072000f7
:10288400be009000808f50000f00390050072000d8
:10289400be009000808f50000d003200f0ff270032
:1028a400be009000808f50000d0032000f003700f2
:1028b400bdff07000d003700b8ff07000b0037000d
:1028c400b3ff070009003700abff0700070037001c
:1028d400a3ff070005003700a4ff0700030037002b
:1028e400a8ff0700010037000000000010002000ce
:0828f4000080fa00000006005c
:020000040000fa
:1028fc00200800008a00000000000000aa08000068
:10290c003c00000000000000000800002000000057
:08291c000000000000000000b3
:020000040000fa
:042924000000fe00b1
:00000001FF
